{
  "_format": "hh-sol-artifact-1",
  "contractName": "ConfLendMarket",
  "sourceName": "contracts/ObolLendMarket.sol",
  "abi": [
    {
      "inputs": [
        {
          "internalType": "enum ConfLendMarket.Direction",
          "name": "dir",
          "type": "uint8"
        },
        {
          "internalType": "address",
          "name": "_collat",
          "type": "address"
        },
        {
          "internalType": "address",
          "name": "_debt",
          "type": "address"
        },
        {
          "internalType": "string",
          "name": "_oDebtName",
          "type": "string"
        },
        {
          "internalType": "string",
          "name": "_oDebtTicker",
          "type": "string"
        },
        {
          "internalType": "address",
          "name": "_oracle",
          "type": "address"
        },
        {
          "internalType": "address",
          "name": "_rateRelayer",
          "type": "address"
        }
      ],
      "stateMutability": "nonpayable",
      "type": "constructor"
    },
    {
      "inputs": [
        {
          "internalType": "uint256",
          "name": "requestId",
          "type": "uint256"
        }
      ],
      "name": "ERC7984InvalidGatewayRequest",
      "type": "error"
    },
    {
      "inputs": [
        {
          "internalType": "address",
          "name": "receiver",
          "type": "address"
        }
      ],
      "name": "ERC7984InvalidReceiver",
      "type": "error"
    },
    {
      "inputs": [
        {
          "internalType": "address",
          "name": "sender",
          "type": "address"
        }
      ],
      "name": "ERC7984InvalidSender",
      "type": "error"
    },
    {
      "inputs": [
        {
          "internalType": "address",
          "name": "caller",
          "type": "address"
        }
      ],
      "name": "ERC7984UnauthorizedCaller",
      "type": "error"
    },
    {
      "inputs": [
        {
          "internalType": "address",
          "name": "holder",
          "type": "address"
        },
        {
          "internalType": "address",
          "name": "spender",
          "type": "address"
        }
      ],
      "name": "ERC7984UnauthorizedSpender",
      "type": "error"
    },
    {
      "inputs": [
        {
          "internalType": "euint64",
          "name": "amount",
          "type": "bytes32"
        },
        {
          "internalType": "address",
          "name": "user",
          "type": "address"
        }
      ],
      "name": "ERC7984UnauthorizedUseOfEncryptedAmount",
      "type": "error"
    },
    {
      "inputs": [
        {
          "internalType": "address",
          "name": "holder",
          "type": "address"
        }
      ],
      "name": "ERC7984ZeroBalance",
      "type": "error"
    },
    {
      "inputs": [],
      "name": "HandlesAlreadySavedForRequestID",
      "type": "error"
    },
    {
      "inputs": [],
      "name": "InvalidKMSSignatures",
      "type": "error"
    },
    {
      "inputs": [],
      "name": "NoHandleFoundForRequestID",
      "type": "error"
    },
    {
      "anonymous": false,
      "inputs": [
        {
          "indexed": false,
          "internalType": "uint128",
          "name": "borrowIndex6",
          "type": "uint128"
        },
        {
          "indexed": false,
          "internalType": "uint128",
          "name": "supplyIndex6",
          "type": "uint128"
        }
      ],
      "name": "Accrued",
      "type": "event"
    },
    {
      "anonymous": false,
      "inputs": [
        {
          "indexed": true,
          "internalType": "euint64",
          "name": "encryptedAmount",
          "type": "bytes32"
        },
        {
          "indexed": false,
          "internalType": "uint64",
          "name": "amount",
          "type": "uint64"
        }
      ],
      "name": "AmountDisclosed",
      "type": "event"
    },
    {
      "anonymous": false,
      "inputs": [
        {
          "indexed": true,
          "internalType": "address",
          "name": "from",
          "type": "address"
        },
        {
          "indexed": true,
          "internalType": "address",
          "name": "to",
          "type": "address"
        },
        {
          "indexed": true,
          "internalType": "euint64",
          "name": "amount",
          "type": "bytes32"
        }
      ],
      "name": "ConfidentialTransfer",
      "type": "event"
    },
    {
      "anonymous": false,
      "inputs": [
        {
          "indexed": true,
          "internalType": "uint256",
          "name": "requestID",
          "type": "uint256"
        }
      ],
      "name": "DecryptionFulfilled",
      "type": "event"
    },
    {
      "anonymous": false,
      "inputs": [
        {
          "indexed": true,
          "internalType": "address",
          "name": "user",
          "type": "address"
        },
        {
          "indexed": true,
          "internalType": "address",
          "name": "liquidator",
          "type": "address"
        },
        {
          "indexed": false,
          "internalType": "uint256",
          "name": "blockNumber",
          "type": "uint256"
        }
      ],
      "name": "LiquidationClaimed",
      "type": "event"
    },
    {
      "anonymous": false,
      "inputs": [
        {
          "indexed": true,
          "internalType": "address",
          "name": "user",
          "type": "address"
        },
        {
          "indexed": true,
          "internalType": "address",
          "name": "liquidator",
          "type": "address"
        },
        {
          "indexed": false,
          "internalType": "uint256",
          "name": "blockNumber",
          "type": "uint256"
        }
      ],
      "name": "LiquidationQueued",
      "type": "event"
    },
    {
      "anonymous": false,
      "inputs": [
        {
          "indexed": true,
          "internalType": "address",
          "name": "holder",
          "type": "address"
        },
        {
          "indexed": true,
          "internalType": "address",
          "name": "operator",
          "type": "address"
        },
        {
          "indexed": false,
          "internalType": "uint48",
          "name": "until",
          "type": "uint48"
        }
      ],
      "name": "OperatorSet",
      "type": "event"
    },
    {
      "anonymous": false,
      "inputs": [
        {
          "indexed": false,
          "internalType": "uint64",
          "name": "brPerSec6",
          "type": "uint64"
        },
        {
          "indexed": false,
          "internalType": "uint64",
          "name": "srPerSec6",
          "type": "uint64"
        }
      ],
      "name": "RatesUpdated",
      "type": "event"
    },
    {
      "anonymous": false,
      "inputs": [
        {
          "indexed": false,
          "internalType": "address",
          "name": "user",
          "type": "address"
        },
        {
          "indexed": false,
          "internalType": "uint256",
          "name": "blockNumber",
          "type": "uint256"
        },
        {
          "indexed": false,
          "internalType": "uint256",
          "name": "requestID",
          "type": "uint256"
        }
      ],
      "name": "decryptionRequested",
      "type": "event"
    },
    {
      "anonymous": false,
      "inputs": [
        {
          "indexed": true,
          "internalType": "address",
          "name": "user",
          "type": "address"
        },
        {
          "indexed": false,
          "internalType": "uint256",
          "name": "requestID",
          "type": "uint256"
        },
        {
          "indexed": false,
          "internalType": "uint256",
          "name": "blockNumber",
          "type": "uint256"
        },
        {
          "indexed": false,
          "internalType": "uint256",
          "name": "A",
          "type": "uint256"
        },
        {
          "indexed": false,
          "internalType": "uint256",
          "name": "B",
          "type": "uint256"
        }
      ],
      "name": "marketFactorsRefreshed",
      "type": "event"
    },
    {
      "inputs": [],
      "name": "CLOSE_FACTOR_BPS",
      "outputs": [
        {
          "internalType": "uint16",
          "name": "",
          "type": "uint16"
        }
      ],
      "stateMutability": "view",
      "type": "function"
    },
    {
      "inputs": [],
      "name": "HYST_BPS",
      "outputs": [
        {
          "internalType": "uint16",
          "name": "",
          "type": "uint16"
        }
      ],
      "stateMutability": "view",
      "type": "function"
    },
    {
      "inputs": [],
      "name": "LIQ_BONUS_BPS",
      "outputs": [
        {
          "internalType": "uint16",
          "name": "",
          "type": "uint16"
        }
      ],
      "stateMutability": "view",
      "type": "function"
    },
    {
      "inputs": [],
      "name": "LT_collat6",
      "outputs": [
        {
          "internalType": "uint32",
          "name": "",
          "type": "uint32"
        }
      ],
      "stateMutability": "view",
      "type": "function"
    },
    {
      "inputs": [
        {
          "internalType": "externalEuint64",
          "name": "encryptedAmount",
          "type": "bytes32"
        },
        {
          "internalType": "bytes",
          "name": "inputProof",
          "type": "bytes"
        }
      ],
      "name": "addCollateral",
      "outputs": [],
      "stateMutability": "nonpayable",
      "type": "function"
    },
    {
      "inputs": [
        {
          "internalType": "euint64",
          "name": "Amt",
          "type": "bytes32"
        }
      ],
      "name": "addCollateral",
      "outputs": [],
      "stateMutability": "nonpayable",
      "type": "function"
    },
    {
      "inputs": [
        {
          "internalType": "externalEuint64",
          "name": "encryptedAmount",
          "type": "bytes32"
        },
        {
          "internalType": "bytes",
          "name": "inputProof",
          "type": "bytes"
        }
      ],
      "name": "borrow",
      "outputs": [],
      "stateMutability": "nonpayable",
      "type": "function"
    },
    {
      "inputs": [
        {
          "internalType": "euint64",
          "name": "Amt",
          "type": "bytes32"
        }
      ],
      "name": "borrow",
      "outputs": [],
      "stateMutability": "nonpayable",
      "type": "function"
    },
    {
      "inputs": [],
      "name": "borrowApr6",
      "outputs": [
        {
          "internalType": "uint64",
          "name": "",
          "type": "uint64"
        }
      ],
      "stateMutability": "view",
      "type": "function"
    },
    {
      "inputs": [],
      "name": "borrowIndex6",
      "outputs": [
        {
          "internalType": "uint128",
          "name": "",
          "type": "uint128"
        }
      ],
      "stateMutability": "view",
      "type": "function"
    },
    {
      "inputs": [
        {
          "internalType": "address",
          "name": "user",
          "type": "address"
        }
      ],
      "name": "claimLiquidation",
      "outputs": [],
      "stateMutability": "nonpayable",
      "type": "function"
    },
    {
      "inputs": [],
      "name": "collatToken",
      "outputs": [
        {
          "internalType": "contract IERC7984",
          "name": "",
          "type": "address"
        }
      ],
      "stateMutability": "view",
      "type": "function"
    },
    {
      "inputs": [],
      "name": "collatTokenAddress",
      "outputs": [
        {
          "internalType": "address",
          "name": "",
          "type": "address"
        }
      ],
      "stateMutability": "view",
      "type": "function"
    },
    {
      "inputs": [
        {
          "internalType": "address",
          "name": "account",
          "type": "address"
        }
      ],
      "name": "confidentialBalanceOf",
      "outputs": [
        {
          "internalType": "euint64",
          "name": "",
          "type": "bytes32"
        }
      ],
      "stateMutability": "view",
      "type": "function"
    },
    {
      "inputs": [],
      "name": "confidentialTotalSupply",
      "outputs": [
        {
          "internalType": "euint64",
          "name": "",
          "type": "bytes32"
        }
      ],
      "stateMutability": "view",
      "type": "function"
    },
    {
      "inputs": [
        {
          "internalType": "address",
          "name": "to",
          "type": "address"
        },
        {
          "internalType": "externalEuint64",
          "name": "encryptedAmount",
          "type": "bytes32"
        },
        {
          "internalType": "bytes",
          "name": "inputProof",
          "type": "bytes"
        }
      ],
      "name": "confidentialTransfer",
      "outputs": [
        {
          "internalType": "euint64",
          "name": "",
          "type": "bytes32"
        }
      ],
      "stateMutability": "nonpayable",
      "type": "function"
    },
    {
      "inputs": [
        {
          "internalType": "address",
          "name": "to",
          "type": "address"
        },
        {
          "internalType": "euint64",
          "name": "amount",
          "type": "bytes32"
        }
      ],
      "name": "confidentialTransfer",
      "outputs": [
        {
          "internalType": "euint64",
          "name": "",
          "type": "bytes32"
        }
      ],
      "stateMutability": "nonpayable",
      "type": "function"
    },
    {
      "inputs": [
        {
          "internalType": "address",
          "name": "to",
          "type": "address"
        },
        {
          "internalType": "euint64",
          "name": "amount",
          "type": "bytes32"
        },
        {
          "internalType": "bytes",
          "name": "data",
          "type": "bytes"
        }
      ],
      "name": "confidentialTransferAndCall",
      "outputs": [
        {
          "internalType": "euint64",
          "name": "transferred",
          "type": "bytes32"
        }
      ],
      "stateMutability": "nonpayable",
      "type": "function"
    },
    {
      "inputs": [
        {
          "internalType": "address",
          "name": "to",
          "type": "address"
        },
        {
          "internalType": "externalEuint64",
          "name": "encryptedAmount",
          "type": "bytes32"
        },
        {
          "internalType": "bytes",
          "name": "inputProof",
          "type": "bytes"
        },
        {
          "internalType": "bytes",
          "name": "data",
          "type": "bytes"
        }
      ],
      "name": "confidentialTransferAndCall",
      "outputs": [
        {
          "internalType": "euint64",
          "name": "transferred",
          "type": "bytes32"
        }
      ],
      "stateMutability": "nonpayable",
      "type": "function"
    },
    {
      "inputs": [
        {
          "internalType": "address",
          "name": "from",
          "type": "address"
        },
        {
          "internalType": "address",
          "name": "to",
          "type": "address"
        },
        {
          "internalType": "externalEuint64",
          "name": "encryptedAmount",
          "type": "bytes32"
        },
        {
          "internalType": "bytes",
          "name": "inputProof",
          "type": "bytes"
        }
      ],
      "name": "confidentialTransferFrom",
      "outputs": [
        {
          "internalType": "euint64",
          "name": "transferred",
          "type": "bytes32"
        }
      ],
      "stateMutability": "nonpayable",
      "type": "function"
    },
    {
      "inputs": [
        {
          "internalType": "address",
          "name": "from",
          "type": "address"
        },
        {
          "internalType": "address",
          "name": "to",
          "type": "address"
        },
        {
          "internalType": "euint64",
          "name": "amount",
          "type": "bytes32"
        }
      ],
      "name": "confidentialTransferFrom",
      "outputs": [
        {
          "internalType": "euint64",
          "name": "transferred",
          "type": "bytes32"
        }
      ],
      "stateMutability": "nonpayable",
      "type": "function"
    },
    {
      "inputs": [
        {
          "internalType": "address",
          "name": "from",
          "type": "address"
        },
        {
          "internalType": "address",
          "name": "to",
          "type": "address"
        },
        {
          "internalType": "externalEuint64",
          "name": "encryptedAmount",
          "type": "bytes32"
        },
        {
          "internalType": "bytes",
          "name": "inputProof",
          "type": "bytes"
        },
        {
          "internalType": "bytes",
          "name": "data",
          "type": "bytes"
        }
      ],
      "name": "confidentialTransferFromAndCall",
      "outputs": [
        {
          "internalType": "euint64",
          "name": "transferred",
          "type": "bytes32"
        }
      ],
      "stateMutability": "nonpayable",
      "type": "function"
    },
    {
      "inputs": [
        {
          "internalType": "address",
          "name": "from",
          "type": "address"
        },
        {
          "internalType": "address",
          "name": "to",
          "type": "address"
        },
        {
          "internalType": "euint64",
          "name": "amount",
          "type": "bytes32"
        },
        {
          "internalType": "bytes",
          "name": "data",
          "type": "bytes"
        }
      ],
      "name": "confidentialTransferFromAndCall",
      "outputs": [
        {
          "internalType": "euint64",
          "name": "transferred",
          "type": "bytes32"
        }
      ],
      "stateMutability": "nonpayable",
      "type": "function"
    },
    {
      "inputs": [],
      "name": "debtToken",
      "outputs": [
        {
          "internalType": "contract IERC7984",
          "name": "",
          "type": "address"
        }
      ],
      "stateMutability": "view",
      "type": "function"
    },
    {
      "inputs": [],
      "name": "debtTokenAddress",
      "outputs": [
        {
          "internalType": "address",
          "name": "",
          "type": "address"
        }
      ],
      "stateMutability": "view",
      "type": "function"
    },
    {
      "inputs": [],
      "name": "decimals",
      "outputs": [
        {
          "internalType": "uint8",
          "name": "",
          "type": "uint8"
        }
      ],
      "stateMutability": "view",
      "type": "function"
    },
    {
      "inputs": [
        {
          "internalType": "euint64",
          "name": "Amt",
          "type": "bytes32"
        }
      ],
      "name": "depositDebtAsset",
      "outputs": [],
      "stateMutability": "nonpayable",
      "type": "function"
    },
    {
      "inputs": [
        {
          "internalType": "externalEuint64",
          "name": "encryptedAmount",
          "type": "bytes32"
        },
        {
          "internalType": "bytes",
          "name": "inputProof",
          "type": "bytes"
        }
      ],
      "name": "depositDebtAsset",
      "outputs": [],
      "stateMutability": "nonpayable",
      "type": "function"
    },
    {
      "inputs": [],
      "name": "direction",
      "outputs": [
        {
          "internalType": "enum ConfLendMarket.Direction",
          "name": "",
          "type": "uint8"
        }
      ],
      "stateMutability": "view",
      "type": "function"
    },
    {
      "inputs": [
        {
          "internalType": "euint64",
          "name": "encryptedAmount",
          "type": "bytes32"
        }
      ],
      "name": "discloseEncryptedAmount",
      "outputs": [],
      "stateMutability": "nonpayable",
      "type": "function"
    },
    {
      "inputs": [
        {
          "internalType": "uint256",
          "name": "requestId",
          "type": "uint256"
        },
        {
          "internalType": "bytes",
          "name": "cleartexts",
          "type": "bytes"
        },
        {
          "internalType": "bytes",
          "name": "signatures",
          "type": "bytes"
        }
      ],
      "name": "finalizeDiscloseEncryptedAmount",
      "outputs": [],
      "stateMutability": "nonpayable",
      "type": "function"
    },
    {
      "inputs": [
        {
          "internalType": "uint256",
          "name": "offset",
          "type": "uint256"
        },
        {
          "internalType": "uint256",
          "name": "limit",
          "type": "uint256"
        }
      ],
      "name": "getActiveBorrowers",
      "outputs": [
        {
          "internalType": "address[]",
          "name": "",
          "type": "address[]"
        }
      ],
      "stateMutability": "view",
      "type": "function"
    },
    {
      "inputs": [
        {
          "internalType": "uint256",
          "name": "offset",
          "type": "uint256"
        },
        {
          "internalType": "uint256",
          "name": "limit",
          "type": "uint256"
        }
      ],
      "name": "getLiquidatableSlice",
      "outputs": [
        {
          "internalType": "address[]",
          "name": "addrs",
          "type": "address[]"
        },
        {
          "internalType": "bool[]",
          "name": "isLiq",
          "type": "bool[]"
        }
      ],
      "stateMutability": "view",
      "type": "function"
    },
    {
      "inputs": [
        {
          "internalType": "address",
          "name": "",
          "type": "address"
        }
      ],
      "name": "hasOpenDebt",
      "outputs": [
        {
          "internalType": "bool",
          "name": "",
          "type": "bool"
        }
      ],
      "stateMutability": "view",
      "type": "function"
    },
    {
      "inputs": [
        {
          "internalType": "address",
          "name": "u",
          "type": "address"
        }
      ],
      "name": "isLiquidatablePublic",
      "outputs": [
        {
          "internalType": "bool",
          "name": "",
          "type": "bool"
        }
      ],
      "stateMutability": "view",
      "type": "function"
    },
    {
      "inputs": [
        {
          "internalType": "address",
          "name": "holder",
          "type": "address"
        },
        {
          "internalType": "address",
          "name": "spender",
          "type": "address"
        }
      ],
      "name": "isOperator",
      "outputs": [
        {
          "internalType": "bool",
          "name": "",
          "type": "bool"
        }
      ],
      "stateMutability": "view",
      "type": "function"
    },
    {
      "inputs": [],
      "name": "lastAccrualTs",
      "outputs": [
        {
          "internalType": "uint64",
          "name": "",
          "type": "uint64"
        }
      ],
      "stateMutability": "view",
      "type": "function"
    },
    {
      "inputs": [
        {
          "internalType": "address",
          "name": "targetUser",
          "type": "address"
        },
        {
          "internalType": "euint64",
          "name": "Amt",
          "type": "bytes32"
        }
      ],
      "name": "liquidate",
      "outputs": [],
      "stateMutability": "nonpayable",
      "type": "function"
    },
    {
      "inputs": [
        {
          "internalType": "address",
          "name": "targetUser",
          "type": "address"
        },
        {
          "internalType": "externalEuint64",
          "name": "encryptedAmount",
          "type": "bytes32"
        },
        {
          "internalType": "bytes",
          "name": "inputProof",
          "type": "bytes"
        }
      ],
      "name": "liquidate",
      "outputs": [],
      "stateMutability": "nonpayable",
      "type": "function"
    },
    {
      "inputs": [],
      "name": "liquidationSeizePerUnit6",
      "outputs": [
        {
          "internalType": "uint128",
          "name": "",
          "type": "uint128"
        }
      ],
      "stateMutability": "view",
      "type": "function"
    },
    {
      "inputs": [],
      "name": "maxBorrow",
      "outputs": [],
      "stateMutability": "nonpayable",
      "type": "function"
    },
    {
      "inputs": [],
      "name": "name",
      "outputs": [
        {
          "internalType": "string",
          "name": "",
          "type": "string"
        }
      ],
      "stateMutability": "view",
      "type": "function"
    },
    {
      "inputs": [],
      "name": "oracle",
      "outputs": [
        {
          "internalType": "contract ObolPriceOracle",
          "name": "",
          "type": "address"
        }
      ],
      "stateMutability": "view",
      "type": "function"
    },
    {
      "inputs": [],
      "name": "oracleAddress",
      "outputs": [
        {
          "internalType": "address",
          "name": "",
          "type": "address"
        }
      ],
      "stateMutability": "view",
      "type": "function"
    },
    {
      "inputs": [
        {
          "internalType": "address",
          "name": "",
          "type": "address"
        }
      ],
      "name": "pos",
      "outputs": [
        {
          "internalType": "euint64",
          "name": "eCollat",
          "type": "bytes32"
        },
        {
          "internalType": "euint64",
          "name": "eDebt",
          "type": "bytes32"
        },
        {
          "internalType": "uint256",
          "name": "A",
          "type": "uint256"
        },
        {
          "internalType": "uint256",
          "name": "B",
          "type": "uint256"
        },
        {
          "internalType": "uint64",
          "name": "posEpoch",
          "type": "uint64"
        },
        {
          "internalType": "uint128",
          "name": "userBorrowIndex6",
          "type": "uint128"
        },
        {
          "internalType": "euint32",
          "name": "secret",
          "type": "bytes32"
        },
        {
          "internalType": "bool",
          "name": "updatePending",
          "type": "bool"
        },
        {
          "internalType": "euint64",
          "name": "maxBorrow",
          "type": "bytes32"
        }
      ],
      "stateMutability": "view",
      "type": "function"
    },
    {
      "inputs": [],
      "name": "protocolId",
      "outputs": [
        {
          "internalType": "uint256",
          "name": "",
          "type": "uint256"
        }
      ],
      "stateMutability": "pure",
      "type": "function"
    },
    {
      "inputs": [],
      "name": "rateRelayer",
      "outputs": [
        {
          "internalType": "address",
          "name": "",
          "type": "address"
        }
      ],
      "stateMutability": "view",
      "type": "function"
    },
    {
      "inputs": [
        {
          "internalType": "address",
          "name": "user",
          "type": "address"
        }
      ],
      "name": "refreshMarketFactors",
      "outputs": [],
      "stateMutability": "nonpayable",
      "type": "function"
    },
    {
      "inputs": [
        {
          "internalType": "uint256",
          "name": "requestID",
          "type": "uint256"
        },
        {
          "internalType": "bytes",
          "name": "cleartexts",
          "type": "bytes"
        },
        {
          "internalType": "bytes",
          "name": "decryptionProof",
          "type": "bytes"
        }
      ],
      "name": "refreshMarketFactorsCallback",
      "outputs": [],
      "stateMutability": "nonpayable",
      "type": "function"
    },
    {
      "inputs": [
        {
          "internalType": "euint64",
          "name": "Amt",
          "type": "bytes32"
        }
      ],
      "name": "removeCollateral",
      "outputs": [],
      "stateMutability": "nonpayable",
      "type": "function"
    },
    {
      "inputs": [
        {
          "internalType": "externalEuint64",
          "name": "encryptedAmount",
          "type": "bytes32"
        },
        {
          "internalType": "bytes",
          "name": "inputProof",
          "type": "bytes"
        }
      ],
      "name": "removeCollateral",
      "outputs": [],
      "stateMutability": "nonpayable",
      "type": "function"
    },
    {
      "inputs": [
        {
          "internalType": "euint64",
          "name": "Amt",
          "type": "bytes32"
        }
      ],
      "name": "repay",
      "outputs": [],
      "stateMutability": "nonpayable",
      "type": "function"
    },
    {
      "inputs": [
        {
          "internalType": "externalEuint64",
          "name": "encryptedAmount",
          "type": "bytes32"
        },
        {
          "internalType": "bytes",
          "name": "inputProof",
          "type": "bytes"
        }
      ],
      "name": "repay",
      "outputs": [],
      "stateMutability": "nonpayable",
      "type": "function"
    },
    {
      "inputs": [
        {
          "internalType": "address",
          "name": "operator",
          "type": "address"
        },
        {
          "internalType": "uint48",
          "name": "until",
          "type": "uint48"
        }
      ],
      "name": "setOperator",
      "outputs": [],
      "stateMutability": "nonpayable",
      "type": "function"
    },
    {
      "inputs": [
        {
          "internalType": "uint64",
          "name": "brPerSec6",
          "type": "uint64"
        },
        {
          "internalType": "uint64",
          "name": "srPerSec6",
          "type": "uint64"
        }
      ],
      "name": "setRates",
      "outputs": [],
      "stateMutability": "nonpayable",
      "type": "function"
    },
    {
      "inputs": [],
      "name": "supplyApr6",
      "outputs": [
        {
          "internalType": "uint64",
          "name": "",
          "type": "uint64"
        }
      ],
      "stateMutability": "view",
      "type": "function"
    },
    {
      "inputs": [],
      "name": "supplyIndex6",
      "outputs": [
        {
          "internalType": "uint128",
          "name": "",
          "type": "uint128"
        }
      ],
      "stateMutability": "view",
      "type": "function"
    },
    {
      "inputs": [],
      "name": "symbol",
      "outputs": [
        {
          "internalType": "string",
          "name": "",
          "type": "string"
        }
      ],
      "stateMutability": "view",
      "type": "function"
    },
    {
      "inputs": [],
      "name": "tokenURI",
      "outputs": [
        {
          "internalType": "string",
          "name": "",
          "type": "string"
        }
      ],
      "stateMutability": "view",
      "type": "function"
    },
    {
      "inputs": [],
      "name": "totalActiveBorrowers",
      "outputs": [
        {
          "internalType": "uint256",
          "name": "",
          "type": "uint256"
        }
      ],
      "stateMutability": "view",
      "type": "function"
    },
    {
      "inputs": [
        {
          "internalType": "address",
          "name": "user",
          "type": "address"
        }
      ],
      "name": "updateDebtInterest",
      "outputs": [],
      "stateMutability": "nonpayable",
      "type": "function"
    },
    {
      "inputs": [],
      "name": "updateIndexes",
      "outputs": [],
      "stateMutability": "nonpayable",
      "type": "function"
    },
    {
      "inputs": [
        {
          "internalType": "externalEuint64",
          "name": "encryptedAmount",
          "type": "bytes32"
        },
        {
          "internalType": "bytes",
          "name": "inputProof",
          "type": "bytes"
        }
      ],
      "name": "withdrawDebtAsset",
      "outputs": [],
      "stateMutability": "nonpayable",
      "type": "function"
    },
    {
      "inputs": [
        {
          "internalType": "euint64",
          "name": "Amt",
          "type": "bytes32"
        }
      ],
      "name": "withdrawDebtAsset",
      "outputs": [],
      "stateMutability": "nonpayable",
      "type": "function"
    }
  ],
  "bytecode": "0x6101a06040523461077557615e8b8038038061001a81610798565b92833981019060e08183031261077557805190600282101561077557610042602082016107bd565b61004e604083016107bd565b60608301516001600160401b038111610775578561006d9185016107d1565b608084015190956001600160401b0382116107755761008d9185016107d1565b936100a660c061009f60a087016107bd565b95016107bd565b946020906100b382610798565b975f89525f60606100c2610779565b82815282868201528260408201520152731364cbbf2cdf5032c47d8226a6f6fbd2afcdacac60606100f1610779565b73687820221192c5b662b25367f70076a37bc79b6c80825273848b0066793bcc60346da1f49049357399b8d59587830181905273a02cda4ca3a71d7c46997716f4283aa851c288126040840181905293909201939093527f9e7b61f58c47dc699ac88507c4f5bb9f121c03808c5676a8078fe583e464970080546001600160a01b031990811690941790557f9e7b61f58c47dc699ac88507c4f5bb9f121c03808c5676a8078fe583e46497018054841690911790557f9e7b61f58c47dc699ac88507c4f5bb9f121c03808c5676a8078fe583e46497028054831690911790557f9e7b61f58c47dc699ac88507c4f5bb9f121c03808c5676a8078fe583e46497038054909116731364cbbf2cdf5032c47d8226a6f6fbd2afcdacac1790558051906001600160401b0382116105cd5760035490600182811c9216801561076b575b858310146105af5781601f84931161071c575b508490601f83116001146106b6575f926106ab575b50508160011b915f199060031b1c1916176003555b8051906001600160401b0382116105cd5760045490600182811c921680156106a1575b848310146105af5781601f849311610652575b508390601f83116001146105ec575f926105e1575b50508160011b915f199060031b1c1916176004555b8651906001600160401b0382116105cd57600554600181811c911680156105c3575b828210146105af57601f811161056b575b5080601f8311600114610502575081906064985f926104f7575b50508160011b915f199060031b1c1916176005555b720f4240000000000000000000000000000f42406007556080526001600160a01b0382811660a05281811660c0526101009190915260e09190915261012082905290811661014052620cf850610160526101f46101805260088054600680546001600160a01b03191694909316939093179091556001600160501b03199091164260101b69ffffffffffffffff0000161791909117905560405161566890816108238239608051818181611a76015261444c015260a051818181610669015281816111eb015281816116af0152612206015260c0518181816102f30152818161041301528181610c2701528181611d26015281816125de01528181613c580152614149015260e0518181816106c3015281816111a7015261139401526101005181818161179c01526141ac015261012051816114bc015261014051818181610360015281816105ea01528181610b8c01528181610f890152818161133e01528181611a0f01528181611b2601528181611c6401528181611fd9015281816124f901528181612564015261441101526101605181818161057b01528181611085015281816118b60152818161338d01526136860152610180518181816108df01526134160152f35b015190505f8061031b565b9197601f19891660055f52835f20935f905b82821061055357505091600193918a60649b941061053b575b505050811b01600555610330565b01515f1960f88460031b161c191690555f808061052d565b80600186978294978701518155019601940190610514565b60055f52815f20601f840160051c8101918385106105a5575b601f0160051c01905b81811061059a5750610301565b5f815560010161058d565b9091508190610584565b634e487b7160e01b5f52602260045260245ffd5b90607f16906102f0565b634e487b7160e01b5f52604160045260245ffd5b015190505f806102b9565b60045f9081528581209350601f198516905b8682821061063c575050908460019594939210610624575b505050811b016004556102ce565b01515f1960f88460031b161c191690555f8080610616565b60018596829396860151815501950193016105fe565b90915060045f52835f20601f840160051c810191858510610697575b90601f859493920160051c01905b81811061068957506102a4565b5f815584935060010161067c565b909150819061066e565b91607f1691610291565b015190505f80610259565b60035f9081528681209350601f198516905b878282106107065750509084600195949392106106ee575b505050811b0160035561026e565b01515f1960f88460031b161c191690555f80806106e0565b60018596829396860151815501950193016106c8565b90915060035f52845f20601f840160051c810191868510610761575b90601f859493920160051c01905b8181106107535750610244565b5f8155849350600101610746565b9091508190610738565b91607f1691610231565b5f80fd5b60405190608082016001600160401b038111838210176105cd57604052565b6040519190601f01601f191682016001600160401b038111838210176105cd57604052565b51906001600160a01b038216820361077557565b81601f82011215610775578051906001600160401b0382116105cd57610800601f8301601f1916602001610798565b928284526020838301011161077557815f9260208093018386015e830101529056fe6080806040526004361015610012575f80fd5b5f905f3560e01c908163040631bf146127845750806306fdde03146126905780630cc0bfa51461267557806313c5d38f1461253957806315b8f0bc146124cf578063190d4eab146123175780631cc1c626146121865780631d52137e1461215c5780631f3c4aba1461213b5780632fb74e621461211a578063313ce567146120fe578063344ff101146120c65780633465c621146120a857806334c45743146120195780633af8c7a614611fa65780633c130d9014611ee95780633f92b3dc14611c2f57806348ddab6414611c125780634c19f20514611be8578063537d3c5014611b895780635409522714611b6b578063563dd61314611afa5780635bebed7e14611aba578063645539ed14611a6057806367d12e1314611a3e5780637dc0d1d0146119f95780638881ec6c14611834578063899b295b1461180b5780638b02373a146117ed5780638bb9b4eb146117cb578063933a9e631461178657806393d0281c146116de57806394ee08271461169957806395d89b411461158c578063967cb24c1461156a578063a573a9f6146114eb578063a89ae4ba146114a6578063aa5f1373146113c3578063adb1c6341461137e578063b280fd5414611311578063b6363cf2146112e4578063bcb7d54414610f5f578063c23d082314610f31578063c535803c14610edd578063c5be124614610eb3578063c7b8a75e14610e23578063c866ca4d14610e05578063cf8e153714610ddc578063d4febb9614610d4a578063d5eed86814610b60578063da0f708914610a48578063da1f12ab14610a2b578063de64211914610977578063e064b9bb14610903578063e3513531146108c4578063eb3155b5146107ff578063ebf3ee0e146107e1578063ee2a177b146107b4578063f23d4026146105bd578063f3917ae11461059f578063f4e160841461055e578063f61cfd1e14610545578063f61ff568146103255763f8d89898146102de575f80fd5b346103225780600319360112610322576040517f00000000000000000000000000000000000000000000000000000000000000006001600160a01b03168152602090f35b80fd5b50346103225761034a61034461033a3661283a565b929192369161296c565b9061384a565b604051633134675560e11b8152906020826004817f00000000000000000000000000000000000000000000000000000000000000006001600160a01b03165afa91821561053a576103fa926103a691859161050b575b50613959565b338352600b6020526103c260ff60066040862001541615613993565b6103cb33612b0b565b338352600b6020526103e4600160408520015482614569565b338452600b60205260016040852001549061531a565b5f51602061561c5f395f51905f52546001600160a01b037f000000000000000000000000000000000000000000000000000000000000000081169291849116803b1561050757816040518092630f8e573b60e21b82528183816104618a8a60048401614671565b03925af180156104fc576104e3575b5061049461047f8484336146b3565b338352600b60205260016040842001546145ed565b338252600b6020526001604083200155338152600b6020526104be600160408320015430906150a7565b338152600b6020526104d73360016040842001546150a7565b6104e033612bee565b80f35b816104ed91612930565b6104f857825f610470565b8280fd5b6040513d84823e3d90fd5b5080fd5b61052d915060203d602011610533575b6105258183612930565b810190613941565b5f6103a0565b503d61051b565b6040513d85823e3d90fd5b50346103225780600319360112610322576104e061348b565b5034610322578060031936011261032257602060405163ffffffff7f0000000000000000000000000000000000000000000000000000000000000000168152f35b5034610322576020366003190112610322576104e060043533613bc7565b503461032257602036600319011261032257604051633134675560e11b81526004803591906020908290817f00000000000000000000000000000000000000000000000000000000000000006001600160a01b03165afa801561053a5761062a91849161050b5750613959565b338252600b60205261064660ff60066040852001541615613993565b604051635b1b1e7960e11b815260208180610665303360048401612a59565b03817f00000000000000000000000000000000000000000000000000000000000000006001600160a01b03165afa801561053a576106aa918491610795575b506139db565b6106b261348b565b5f51602061561c5f395f51905f52547f0000000000000000000000000000000000000000000000000000000000000000919083906001600160a01b0316803b1561050757816040518092630f8e573b60e21b82528183816107178a8a60048401614671565b03925af180156104fc57610780575b506107476107358484336146b3565b338352600b602052604083205461468a565b338252600b6020526040822055338152600b60205261076a3060408320546150a7565b338152600b6020526104d73360408320546150a7565b8161078a91612930565b6104f857825f610726565b6107ae915060203d602011610533576105258183612930565b5f6106a4565b503461032257806003193601126103225760206107cf6133f7565b6040516001600160801b039091168152f35b50346103225780600319360112610322576020600954604051908152f35b50346103225760603660031901126103225761085561081c6127bd565b6108246127d3565b6044359161083c33846108373382614b25565b612aa0565b610850338261084b33826131f8565b612a73565b613b94565b5f51602061561c5f395f51905f52546001600160a01b0316803b156104f857826040518092630f8e573b60e21b8252818381610895338960048401614671565b03925af1801561053a576108af575b602082604051908152f35b6108ba838092612930565b61050757816108a4565b5034610322578060031936011261032257602060405161ffff7f0000000000000000000000000000000000000000000000000000000000000000168152f35b50346103225760803660031901126103225761091d6127bd565b6109256127d3565b90606435916001600160401b0383116109735761096d61096561094f61085595369060040161280d565b61095e338761084b33826131f8565b369161296c565b60443561384a565b91613b94565b8380fd5b5034610322576080366003190112610322576109916127bd565b6044356001600160401b0381116104f8576109b090369060040161280d565b606435926001600160401b038411610a2757610a19610a2192610a0b6109ff6109f86109f06109e66108559a369060040161280d565b999095369161296c565b60243561384a565b8533613b94565b95869283863333614a07565b610a13614f6b565b9061531a565b9033906148e2565b906145ed565b8480fd5b503461032257806003193601126103225760206040516127118152f35b503461032257610a573661286d565b908160095481158015610b56575b15610b355750509050815b610a7981612a0d565b91610a876040519384612930565b818352601f19610a9683612a0d565b0136602085013760095490845b838110610ac45760405160208082528190610ac090820188612883565b0390f35b610ace81836133ea565b83811015610b2157600987527f6e1540171b6c0c960b71a7020d9f60077f6af931a8bbf590da0223dacf75c7af015460019190600388901b1c6001600160a01b0316610b1a8288612a45565b5201610aa3565b634e487b7160e01b87526032600452602487fd5b82610b3f916133dd565b809111610b4e575b5090610a70565b91505f610b47565b5080831015610a65565b503461032257602036600319011261032257604051633134675560e11b815260048035906020908390817f00000000000000000000000000000000000000000000000000000000000000006001600160a01b03165afa91821561053a57610c0e92610bd191859161050b5750613959565b338352600b602052610bed60ff60066040862001541615613993565b610bf633612b0b565b610bff3361357b565b610c098183614569565b61531a565b5f51602061561c5f395f51905f52546001600160a01b037f000000000000000000000000000000000000000000000000000000000000000081169291849116803b1561050757816040518092630f8e573b60e21b8252818381610c758a8a60048401614671565b03925af180156104fc57610d35575b5050610ca991610c949133613a1f565b338352600b602052600160408420015461468a565b338252600b6020526001604083200155338152600b602052610cd3600160408320015430906150a7565b338152600b602052610cec3360016040842001546150a7565b610d01335f52600a60205260405f2054151590565b15610d0f576104e033612bee565b610d1833614db0565b50338152600e60205260408120805460ff191660011790556104d7565b81610d3f91612930565b6104f857825f610c84565b503461032257604036600319011261032257610d646127bd565b6024359065ffffffffffff82168092036104f857338084526001602090815260408086206001600160a01b03949094165f81815294835293819020805465ffffffffffff19168617905551938452919290917f921a218a75d18e8ec5704851e6b234a85725b21a2521ce889622c35dedc1fa1291a380f35b50346103225780600319360112610322576006546040516001600160a01b039091168152602090f35b5034610322576104e0610e1d61034461033a3661283a565b33614125565b503461032257608036600319011261032257610e3d6127bd565b610e456127d3565b604435606435916001600160401b038311610a275761085593610ead610a2193610a0b610e79610ea197369060040161280d565b979092610e8b33826108373382614b25565b610e9a338761084b33826131f8565b8686613b94565b96879283878733614a07565b916148e2565b503461032257806003193601126103225760206001600160401b0360085460501c16604051908152f35b503461032257602036600319011261032257610f2d600435610f0433826108373382614b25565b60405190610f13604083612930565b6001825260203681840137610f2782612a24565b52615107565b5080f35b5034610322576020366003190112610322576020610f55610f506127bd565b613258565b6040519015158152f35b503461032257610f7461034461033a3661283a565b604051633134675560e11b81526020816004817f00000000000000000000000000000000000000000000000000000000000000006001600160a01b03165afa801561053a57610fc991849161050b5750613959565b338252600b602052610fe560ff60066040852001541615613993565b338252600b6020526040822090610ffa6143fc565b600483015460401c6001600160801b03166112c3576007546001600160801b03165b6007546001600160801b0316620f42408181029291808404909114901517156112af5791620f424061107461105e61107a94839660018060801b031690612aed565b600388015490936001600160801b031690612ac6565b04612ac6565b046110ac63ffffffff7f0000000000000000000000000000000000000000000000000000000000000000168092612ac6565b612710810290808204612710149015171561129b5761116b92916110e961115c9261ffff6110dd8160085416613244565b169081015f1901612aed565b60028601548181111561128a5761111761110961114a9361113c936133dd565b6001600160801b0316614ece565b926111256005890154614b90565b90811561127a575b6001600160801b031690614c2e565b61114585614b90565b6142dc565b81811561126a575b1561125a576154db565b90611165614f6b565b9161531a565b5f51602061561c5f395f51905f525490919083906001600160a01b0316803b1561050757816040518092630f8e573b60e21b82528183816111d07f00000000000000000000000000000000000000000000000000000000000000008b60048401614671565b03925af180156104fc57611245575b506112219261121a91507f00000000000000000000000000000000000000000000000000000000000000006001600160a01b03169033613a1f565b90546145ed565b338252600b6020526040822055338152600b60205261076a604082205430906150a7565b8161124f91612930565b6104f857825f6111df565b9050611264614f1d565b906154db565b9050611274614f1d565b90611152565b9050611284614f1d565b9061112d565b505061114a61113c61111788611109565b634e487b7160e01b85526011600452602485fd5b634e487b7160e01b86526011600452602486fd5b338452600b602052604080852060040154901c6001600160801b031661101c565b5034610322576040366003190112610322576020610f556113036127bd565b61130b6127d3565b906131f8565b503461032257602036600319011261032257604051633134675560e11b81526004803591906020908290817f00000000000000000000000000000000000000000000000000000000000000006001600160a01b03165afa801561053a57610fc991849161050b5750613959565b50346103225780600319360112610322576040517f00000000000000000000000000000000000000000000000000000000000000006001600160a01b03168152602090f35b5034610322576040366003190112610322576004356001600160401b0381168082036104f857602435906001600160401b038216808303610a27576006546001600160a01b0316330361147b577ff532958d97b6f649eaafefea330336a865c4760e22dacc7f4f9281f1302b606a93604093600854906001600160401b0360901b9060901b16916001600160401b0360501b9060501b1690600160501b600160d01b031916171760085582519182526020820152a180f35b606460405162461bcd60e51b81526020600482015260046024820152635241544560e01b6044820152fd5b50346103225780600319360112610322576040517f00000000000000000000000000000000000000000000000000000000000000006001600160a01b03168152602090f35b5034610322576115076114fd366129c0565b8183949293613fe7565b6020818051810103126104f85760200151906001600160401b0382168092036104f857602061155e6115597f83bbbc07896439e5d950a6cead04cbc676180af7a61cecf43f5296475057f57193614371565b612a24565b5192604051908152a280f35b5034610322576020366003190112610322576104e06115876127bd565b612bee565b50346103225780600319360112610322576040519080600454908160011c9160018116801561168f575b60208410811461167b5783865290811561165457506001146115f7575b610ac0846115e381860382612930565b6040519182916020835260208301906127e9565b600481527f8a35acfbc15ff81a39ae7d344fd709f28e8600b4aa8c65c6b64bfe7fe36bd19b939250905b80821061163a575090915081016020016115e3826115d3565b919260018160209254838588010152019101909291611621565b60ff191660208087019190915292151560051b850190920192506115e391508390506115d3565b634e487b7160e01b83526022600452602483fd5b92607f16926115b6565b50346103225780600319360112610322576040517f00000000000000000000000000000000000000000000000000000000000000006001600160a01b03168152602090f35b503461032257602036600319011261032257610120906040906001600160a01b036117076127bd565b168152600b6020522080549060018101549060028101546003820154600483015490600584015492600760ff600687015416950154956040519788526020880152604087015260608601526001600160401b038116608086015260018060801b039060401c1660a085015260c0840152151560e0830152610100820152f35b50346103225780600319360112610322576040517f00000000000000000000000000000000000000000000000000000000000000006001600160a01b03168152602090f35b5034610322578060031936011261032257602061ffff60085416604051908152f35b5034610322576020366003190112610322576104e060043533614125565b50346103225780600319360112610322576007546040516001600160801b039091168152602090f35b503461032257611850611846366129c0565b8183949294613fe7565b6040828051810103126104f85760807fd12a0aea1fbab22a32ed811b0a54faf092132fb68be04b7faa39eb2206a54e6791611899604061189260208701612bda565b9501612bda565b818652600c60205260408620546001600160a01b0316946118e9907f000000000000000000000000000000000000000000000000000000000000000063ffffffff16905f196001871b0116612ac6565b858752600b6020526002604088200155848652600b602052600180841b03166003604087200155838552600b6020526006604086200160ff198154169055838552600b602052600360408620015415801561194f865f52600a60205260405f2054151590565b90806119f1575b156119ba57505061196684614db0565b50838552600e60205260408520805460ff191660011790555b838552600b6020526002604086200154848652600b60205260036040872001549060405192835243602084015260408301526060820152a280f35b816119e9575b501561197f576119cf84614cd5565b50838552600e60205260408520805460ff1916905561197f565b90505f6119c0565b508015611956565b50346103225780600319360112610322576040517f00000000000000000000000000000000000000000000000000000000000000006001600160a01b03168152602090f35b5034610322576020366003190112610322576104e0611a5b6127bd565b612b0b565b50346103225780600319360112610322576040517f00000000000000000000000000000000000000000000000000000000000000006002811015611aa657602092508152f35b634e487b7160e01b83526021600452602483fd5b5034610322576040366003190112610322576020611af2611ad96127bd565b60243590611aec33836108373382614b25565b33613b94565b604051908152f35b503461032257602036600319011261032257604051633134675560e11b815260048035906020908390817f00000000000000000000000000000000000000000000000000000000000000006001600160a01b03165afa91821561053a576103fa926103a691859161050b5750613959565b50346103225780600319360112610322576020600254604051908152f35b503461032257606036600319011261032257611ba36127bd565b6044356024356001600160401b0382116109735761085592610a19610a2192610a0b611bd66109ff96369060040161280d565b9690926109f833826108373382614b25565b503461032257806003193601126103225760206001600160401b0360085460901c16604051908152f35b503461032257806003193601126103225760206040516113888152f35b503461032257610344611c4f611c44366128bf565b94919294369161296c565b604051633134675560e11b81526020816004817f00000000000000000000000000000000000000000000000000000000000000006001600160a01b03165afa8015611ede57611ca491859161050b5750613959565b6001600160a01b038216808452600b6020526040842060060154909290611cce9060ff1615613993565b611cd781613258565b15611eaf57611ce581612b0b565b828452600b6020526040842090611d0d6001830193611d05855482614569565b85549061531a565b5f51602061561c5f395f51905f52546001600160a01b037f000000000000000000000000000000000000000000000000000000000000000081169291889116803b1561050757816040518092630f8e573b60e21b8252818381611d748a8a60048401614671565b03925af180156104fc57611e90575b5050611de2611ddd611dd8611e3c97611dc787611da8611ded9998611da898336146b3565b92611dc1611db78583546145ed565b80835530906150a7565b546150a7565b611125611dd26133f7565b91614b90565b613eb2565b614bdf565b611d05855482614569565b60405190611dfa82612901565b8152600160208201818152848652600d60205260408620828060a01b0333165f5260205260405f209251835551151591019060ff801983541691151516179055565b808252600d60209081526040808420335f9081529252902054611e609030906150a7565b604051904382527fee0320fbbf99c1550dc0f06664950b4aece952bd53ef6938afe565fe4341d9df60203393a380f35b81611e9e9195949395612930565b611eab579091865f611d83565b8680fd5b60405162461bcd60e51b81526020600482015260076024820152664845414c54485960c81b6044820152606490fd5b6040513d86823e3d90fd5b50346103225780600319360112610322576040519080600554908160011c91600181168015611f9c575b60208410811461167b578386529081156116545750600114611f3f57610ac0846115e381860382612930565b600581527f036b6384b5eca791c62761152d0c79bb0604c104a5fb6f4eb0703f3154bb3db0939250905b808210611f82575090915081016020016115e3826115d3565b919260018160209254838588010152019101909291611f69565b92607f1692611f13565b503461032257604036600319011261032257611fc06127bd565b604051633134675560e11b8152602435906020816004817f00000000000000000000000000000000000000000000000000000000000000006001600160a01b03165afa8015611ede57611ca491859161050b5750613959565b50346103225760a0366003190112610322576120336127bd565b61203b6127d3565b6064356001600160401b0381116109735761205a90369060040161280d565b9091608435936001600160401b0385116120a457610ead610a2193610a0b610ea1610e9a6109656120926108559b369060040161280d565b9a909561095e338a61084b33826131f8565b8580fd5b5034610322576104e06120c061034461033a3661283a565b33613bc7565b5034610322576020366003190112610322576020906040906001600160a01b036120ee6127bd565b1681528083522054604051908152f35b5034610322578060031936011261032257602060405160068152f35b5034610322576020611af2610344612134611c44366128bf565b9033613b94565b5034610322578060031936011261032257602060075460801c604051908152f35b503461032257806003193601126103225760206001600160401b0360085460101c16604051908152f35b5034610322576020366003190112610322576121a06127bd565b6001600160a01b038116808352600d60209081526040808520335f908152925290819020905191929060ff906001906121d885612901565b8054855201541615801560208401526122e55781515f51602061561c5f395f51905f52546001600160a01b037f0000000000000000000000000000000000000000000000000000000000000000811694928792909116803b156104f8578583916122599383604051809681958294630f8e573b60e21b845260048401614671565b03925af180156104fc576122d0575b50506122a092612279915133613a1f565b50828452600d60209081526040808620335f90815292529020848155600101849055612bee565b604051904382527fb81c5f11c7d1988f24999c8f6d370aedadbf7043ae35e65c3150d3743dde122f60203393a380f35b816122da91612930565b610a2757845f612268565b60405162461bcd60e51b815260206004820152600a6024820152694e4f5f50454e44494e4760b01b6044820152606490fd5b5034610322576123263661286d565b60405163da0f708960e01b815260048101929092526024820152908082604481305afa9182156124c257819261241f575b50815161237c61236682612a0d565b916123746040519384612930565b808352612a0d565b6020820190601f1901368237825b84518110156123c7576001906123b26001600160a01b036123ab8389612a45565b5116613258565b6123bc8286612a45565b90151590520161238a565b5090916123e593926020604051958695604087526040870190612883565b918583038287015251918281520192915b818110612404575050500390f35b825115158452859450602093840193909201916001016123f6565b9091503d8083833e6124318183612930565b8101906020818303126104f8578051906001600160401b03821161097357019080601f830112156104f85781519061246882612a0d565b926124766040519485612930565b82845260208085019360051b820101918211610a2757602001915b8183106124a257505050905f612357565b82516001600160a01b03811681036120a457815260209283019201612491565b50604051903d90823e3d90fd5b5034610322576124e461034461033a3661283a565b604051633134675560e11b81526020816004817f00000000000000000000000000000000000000000000000000000000000000006001600160a01b03165afa801561053a5761062a91849161050b5750613959565b50346126715761254e61034461033a3661283a565b604051633134675560e11b8152906020826004817f00000000000000000000000000000000000000000000000000000000000000006001600160a01b03165afa918215612666576125c5926125a9915f9161050b5750613959565b335f52600b602052610bed60ff600660405f2001541615613993565b5f51602061561c5f395f51905f52546001600160a01b037f00000000000000000000000000000000000000000000000000000000000000008116929116803b15612671575f6040518092630f8e573b60e21b825281838161262a898960048401614671565b03925af1801561266657612648575b50610ca991610c949133613a1f565b610c949193509161265c5f610ca994612930565b5f93915091612639565b6040513d5f823e3d90fd5b5f80fd5b34612671575f3660031901126126715761268e3361357b565b005b34612671575f366003190112612671576040515f6003548060011c9060018116801561277a575b6020831081146127665782855290811561274257506001146126e4575b610ac0836115e381850382612930565b60035f9081527fc2575a0e9e593c00f959f8c92f12db2869c3395a3b0502d05e2516446f71f85b939250905b808210612728575090915081016020016115e36126d4565b919260018160209254838588010152019101909291612710565b60ff191660208086019190915291151560051b840190910191506115e390506126d4565b634e487b7160e01b5f52602260045260245ffd5b91607f16916126b7565b34612671576020366003190112612671576020906001600160a01b036127a86127bd565b165f52600e825260ff60405f20541615158152f35b600435906001600160a01b038216820361267157565b602435906001600160a01b038216820361267157565b805180835260209291819084018484015e5f828201840152601f01601f1916010190565b9181601f84011215612671578235916001600160401b038311612671576020838186019501011161267157565b9060406003198301126126715760043591602435906001600160401b038211612671576128699160040161280d565b9091565b6040906003190112612671576004359060243590565b90602080835192838152019201905f5b8181106128a05750505090565b82516001600160a01b0316845260209384019390920191600101612893565b6060600319820112612671576004356001600160a01b0381168103612671579160243591604435906001600160401b038211612671576128699160040161280d565b604081019081106001600160401b0382111761291c57604052565b634e487b7160e01b5f52604160045260245ffd5b90601f801991011681019081106001600160401b0382111761291c57604052565b6001600160401b03811161291c57601f01601f191660200190565b92919261297882612951565b916129866040519384612930565b829481845281830111612671578281602093845f960137010152565b9080601f83011215612671578160206129bd9335910161296c565b90565b606060031982011261267157600435916024356001600160401b03811161267157826129ee916004016129a2565b91604435906001600160401b038211612671576129bd916004016129a2565b6001600160401b03811161291c5760051b60200190565b805115612a315760200190565b634e487b7160e01b5f52603260045260245ffd5b8051821015612a315760209160051b010190565b6001600160a01b0391821681529116602082015260400190565b15612a7c575050565b630f3e596760e31b5f9081526001600160a01b039182166004529116602452604490fd5b15612aa9575050565b6367cfe80560e01b5f5260045260018060a01b031660245260445ffd5b81810292918115918404141715612ad957565b634e487b7160e01b5f52601160045260245ffd5b8115612af7570490565b634e487b7160e01b5f52601260045260245ffd5b612b1361348b565b6001600160a01b03165f908152600b60205260409081902060048101805490921c6001600160801b031680612bd557506007546001600160801b03165b6007546001600160801b031690818103612b92575b50506007548254600160401b600160c01b03191660409190911b600160401b600160c01b03161790915550565b620f4240820291808304620f42401490151715612ad957611dd86001612bbe611ddd93612bcb95612aed565b9401936111258554614b90565b90555f8080612b65565b612b50565b51906001600160801b038216820361267157565b5f5f60018060a01b03831692838252600b6020526040822054156131b1575b838252600b602052600160408320015415613161575b5f5160206155dc5f395f51905f5254604051636baeb74560e11b81526004808201529260209184916024918391906001600160a01b03165af18015612666575f9061312f575b5f92508015818161311d575b5f5160206155dc5f395f51905f5254604051637210768160e01b81526004810192909252601b6024830152600160f81b6044830152909460209186916064918391906001600160a01b03165af1938415612666575f946130e9575b505f5160206155dc5f395f51905f5254604051639cd07acb60e01b8152601b600482015294906001600160a01b0316856044815f602094600460248401525af1948515612666575f9561309b575b50612d7a94612d47939291612d3591611165614fb9565b919061308d575b811561307d5761536c565b5f858152600b60205260409020600501819055612d659030906150a7565b835f52600b602052600560405f2001546150a7565b5f828152600b60205260409020805460018201546005909201549291612dba91612dae90611dd290612db490838389614b90565b906142dc565b95614b90565b9160405192612dca606085612930565b6002845260208401916040368437612de185612a24565b52835160011015612a315760408401525f51602061563c5f395f51905f52545f51602061561c5f395f51905f52549093906001600160a01b0316803b15612671575f6040518092637d6e912360e11b825260206004830152818381612e496024820189614c8d565b03925af1801561266657613068575b507f9e7b61f58c47dc699ac88507c4f5bb9f121c03808c5676a8078fe583e4649702546001600160a01b0316803b1561097357836040518092633263b83b60e01b825287600483015260606024830152818381612eb86064820189614c8d565b6322207b1b60e21b604483015203925af18015611ede57908491613053575b508490525f5160206155bc5f395f51905f526020526040832054613044578383525f5160206155bc5f395f51905f52602052604083209051916001600160401b03831161303057600160401b831161303057815483835580841061300a575b5090835260208320835b838110612ff657505050505f51602061563c5f395f51905f52545f198114612fe25791600660407f40ac511e5e6ae27363fc6d4c6c8c3e3e2eabb050660665d7bfe6605005535b2895936001606096015f51602061563c5f395f51905f5255838152600c6020528181208560018060a01b0319825416179055848152600b6020522001600160ff198254161790556040519182524360208301526040820152a1565b634e487b7160e01b82526011600452602482fd5b600190602084519401938184015501612f40565b828552836020862091820191015b8181106130255750612f36565b858155600101613018565b634e487b7160e01b84526041600452602484fd5b633f06d22b60e01b8352600483fd5b8161305d91612930565b6104f857825f612ed7565b6130759193505f90612930565b5f915f612e58565b9050613087614fb9565b9061536c565b50613096614fb9565b612d3c565b945091906020853d6020116130cd575b816130b860209383612930565b81010312612671579351939091612d35612d1e565b3d91506130ab565b634e487b7160e01b5f52602160045260245ffd5b9093506020813d602011613115575b8161310560209383612930565b810103126126715751925f612cd0565b3d91506130f8565b506020613128614fb9565b9050612c75565b506020823d602011613159575b8161314960209383612930565b81010312612671575f9151612c69565b3d915061313c565b613169614f6b565b848352600b6020526001604084200155838252600b602052613193600160408420015430906150a7565b838252600b6020526131ac8160016040852001546150a7565b612c23565b6131b9614f6b565b848352600b6020526040832055838252600b6020526131dd604083205430906150a7565b838252600b6020526131f38160408420546150a7565b612c0d565b6001600160a01b0382811691169081149190821561321557505090565b9091505f52600160205260405f209060018060a01b03165f5260205265ffffffffffff60405f20541642111590565b61ffff16612710019061ffff8211612ad957565b60018060a01b03165f52600b60205260405f206040519061012082018281106001600160401b0382111761291c576040528054825260018101546020830152600281015491604081019283526003820154606082019181835261010060076004860154956001600160401b038716608085015260a084019660018060801b039060401c168752600581015460c085015260ff600682015416151560e08501520154910152156133d6576133096143fc565b91516001600160801b0316806133d157506007546001600160801b03165b6007546001600160801b0316620f42408181029180830490911490151715612ad9576133856133ca93620f42406110746127109761337283966133b39860018060801b031690612aed565b93516001600160801b0390911690612ac6565b0463ffffffff7f00000000000000000000000000000000000000000000000000000000000000001690612ac6565b61ffff6133c38160085416613244565b1690612ac6565b0490511090565b613327565b5050505f90565b91908203918211612ad957565b91908201809211612ad957565b61271061343a6001600160801b0361340d6143fc565b1661ffff6133c37f0000000000000000000000000000000000000000000000000000000000000000613244565b046001600160801b038111613455576001600160801b031690565b60405162461bcd60e51b815260206004820152600e60248201526d29a2a4ad22afa920aa22afa7ab2360911b6044820152606490fd5b6008546001600160401b038160101c166001600160401b03421603906001600160401b038211612ad9576001600160401b03821615613577576007547f6c1b4226c1c075758d52f5c0f36de14ce8870265c7a31e93935594bad98acb9692604092909161353a6001600160801b0361351385605086901c6001600160401b031683861661451c565b16936001600160801b031992609085901c6001600160401b0316908416861760801c61451c565b60801b168217908160075569ffffffffffffffff00004260101b169069ffffffffffffffff0000191617600855825191825260801c6020820152a1565b5050565b61358361348b565b61358b6143fc565b6001600160a01b0382165f818152600b60205260409081902060040154919392620f424092620f423f921c6001600160801b0316613824576007546135f0906001600160801b03165b6007546001600160801b039182169116850281015f1901612aed565b6001600160801b0390911602010480156137f45761270f6127109161ffff61361b8160085416613244565b16020104906001600160801b0382116137c5576136fe6136c2611ddd6129bd94865f52600b60205260405f205415613787575b865f52600b602052600160405f20015415613743575b865f52600b60205261367960405f2054614b90565b8015613730575b6136b1907f000000000000000000000000000000000000000000000000000000000000000063ffffffff1690614c2e565b6001600160801b0390911690613f5b565b845f52600b6020526136db81600160405f200154614569565b906111656136e7614f6b565b91875f52600b602052600160405f200154906145ed565b5f848152600b602052604090206007018190559261371c30856150a7565b5f52600b602052600760405f2001546150a7565b506136b161373c614f1d565b9050613680565b61374b614f6b565b5f888152600b602052604090206001018190556137699030906150a7565b865f52600b60205261378285600160405f2001546150a7565b613664565b61378f614f6b565b5f888152600b602052604090208190556137aa9030906150a7565b865f52600b6020526137c08560405f20546150a7565b61364e565b60405162461bcd60e51b81526020600482015260076024820152662222a72fa7ab2360c91b6044820152606490fd5b60405162461bcd60e51b815260206004820152600860248201526744454e5f5a45524f60c01b6044820152606490fd5b5f858152600b602052604090819020600401546135f0911c6001600160801b03166135d4565b6138999160209160018060a01b035f5160206155dc5f395f51905f525416905f60405180968195829463196d0b9b60e01b845260048401523360248401526080604484015260848301906127e9565b6005606483015203925af1908115612666575f9161390f575b505f51602061561c5f395f51905f52546001600160a01b0316803b15612671575f6040518092630f8e573b60e21b82528183816138f3338960048401614671565b03925af1801561266657613905575090565b5f6129bd91612930565b90506020813d602011613939575b8161392a60209383612930565b8101031261267157515f6138b2565b3d915061391d565b90816020910312612671575180151581036126715790565b1561396057565b60405162461bcd60e51b815260206004820152600b60248201526a5354414c455f505249434560a81b6044820152606490fd5b1561399a57565b60405162461bcd60e51b81526020600482015260196024820152785573657220706f736974696f6e206973207570646174696e6760381b6044820152606490fd5b156139e257565b60405162461bcd60e51b815260206004820152601560248201527427b137b61036bab9ba1031329037b832b930ba37b960591b6044820152606490fd5b60405163344ff10160e01b81523060048201526001600160a01b039093169291602083602481875afa928315612666575f93613b2c575b50604051632df5f6bf60e11b81526001600160a01b03909216600483015260248201526020816044815f875af1801561266657613afb575b5060206024926040519384809263344ff10160e01b82523060048301525afa908115612666575f91613ac5575b6129bd92506145ed565b90506020823d602011613af3575b81613ae060209383612930565b81010312612671576129bd915190613abb565b3d9150613ad3565b6020813d602011613b24575b81613b1460209383612930565b8101031261267157506020613a8e565b3d9150613b07565b9092506020813d602011613b58575b81613b4860209383612930565b810103126126715751915f613a56565b3d9150613b3b565b15613b6757565b63ee457ebf60e01b5f525f60045260245ffd5b15613b8157565b638d51880160e01b5f525f60045260245ffd5b6129bd929190613bae6001600160a01b0382161515613b60565b613bc26001600160a01b0383161515613b7a565b6148e2565b919091613bdc613bd730836131f8565b6139db565b613be461348b565b5f51602061561c5f395f51905f52545f93906001600160a01b0316803b15612671575f6040518092630f8e573b60e21b8252818381613c27308960048401614671565b03925af1801561266657613e9b575b50613c43903090836146b3565b60405163344ff10160e01b81523060048201527f00000000000000000000000000000000000000000000000000000000000000006001600160a01b031690602081602481855afa908115613e90578691613e5c575b50613cc5613cca91613cbd613cb4613cae615007565b83614569565b91610a21615007565b611165614f6b565b614b90565b828115613e37575b610bff611ddd613ce8620f4240613cf495614c2e565b60075460801c90613f5b565b613d2b81613d25611ddd611dd8613d0a84614b90565b60075460801c811561127a576001600160801b031690614c2e565b946145ed565b5f51602061561c5f395f51905f525490939087906001600160a01b0316803b1561050757816040518092630f8e573b60e21b8252818381613d708b8a60048401614671565b03925af180156104fc57613e22575b5050613da192613d8f9186613a1f565b50613d9b301515613b60565b306147f6565b505f51602061561c5f395f51905f52546001600160a01b0316803b15610a2757846040518092630f8e573b60e21b8252818381613de2308960048401614671565b03925af18015613e1757613e02575b50613dff9293503091613a1f565b50565b613e0d858092612930565b6109735783613df1565b6040513d87823e3d90fd5b81613e2c91612930565b611eab57865f613d7f565b613cf49150610bff611ddd613ce8620f4240613e51614f1d565b955050505050613cd2565b90506020813d602011613e88575b81613e7760209383612930565b810103126126715751613cc5613c98565b3d9150613e6a565b6040513d88823e3d90fd5b613ea89194505f90612930565b5f92613c43613c36565b8015613f47575b5f5160206155dc5f395f51905f5254604051635a53accb60e01b81526004810192909252620f42406024830152600160f81b6044830152602090829060649082905f906001600160a01b03165af1908115612666575f91613f18575090565b90506020813d602011613f3f575b81613f3360209383612930565b81010312612671575190565b3d9150613f26565b505f6020613f53614f1d565b915050613eb9565b602090613fc2928115613fd7575b5f5160206155dc5f395f51905f5254604051635a53accb60e01b815260048101939093526001600160801b039091166024830152600160f81b6044830152909283916001600160a01b03169082905f9082906064820190565b03925af1908115612666575f91613f18575090565b9050613fe1614f1d565b90613f69565b9190613ff283614371565b815192836020019384602011612ad957604001809411612ad9576140955f60209493614042868080976140a79a60405199828b9351918291018585015e8201908382015203018088520186612930565b6140b960018060a01b037f9e7b61f58c47dc699ac88507c4f5bb9f121c03808c5676a8078fe583e4649703541694604051988997889687956378542ead60e01b8752606060048801526064870190614c8d565b858103600319016024870152906127e9565b838103600319016044850152906127e9565b03925af1908115612666575f91614106575b50156140f7577f1af0453083661051f6e56e5c070792320652e612154bf9af8637bb1e7655b99d5f80a2565b63cf6c44e960e01b5f5260045ffd5b61411f915060203d602011610533576105258183612930565b5f6140cb565b90604051635b1b1e7960e11b815260208180614145308760048401612a59565b03817f00000000000000000000000000000000000000000000000000000000000000006001600160a01b03165afa801561266657614189915f9161079557506139db565b61419161348b565b5f51602061561c5f395f51905f52546001600160a01b0316907f000000000000000000000000000000000000000000000000000000000000000090823b15612671575f6040518094630f8e573b60e21b82528183816141f4888860048401614671565b03925af19283156126665761420f936142cc575b50836146b3565b9060ff60085460d01c161561426a5761422a613dff92614b90565b801561424a575b611ddd613ce8620f424061424493614c2e565b90614e05565b50614244611ddd613ce8620f4240614260614f1d565b9350505050614231565b61422a613cc561429e9361429261427f615007565b8283156142be575b81156142b4576154db565b90611165613cb4614f6b565b506008805460ff60d01b1916600160d01b179055565b9050611264614f6b565b506142c7614f6b565b614287565b5f6142d691612930565b5f614208565b6020905f928115614361575b8015614353575b5f5160206155dc5f395f51905f5254604051630afe14ad60e31b8152600480820194909452848101909301919091526001600160f81b0319841660448301529092839160649183916001600160a01b03165af1908115612666575f91613f18575090565b5061435c614f1d565b6142ef565b905061436b614f1d565b906142e8565b805f525f5160206155bc5f395f51905f5260205260405f2054156143ed575f525f5160206155bc5f395f51905f5260205260405f20604051808260208294549384815201905f5260205f20925f5b8181106143d45750506129bd92500382612930565b84548352600194850194869450602090930192016143bf565b63d66ca67560e01b5f5260045ffd5b6040516310cb6aa960e31b81526020816004817f00000000000000000000000000000000000000000000000000000000000000006001600160a01b03165afa908115612666575f916144e2575b507f000000000000000000000000000000000000000000000000000000000000000060028110156130d5576129bd57614492906001600160801b031664e8d4a50fff8101612aed565b6001600160801b0381116144ac576001600160801b031690565b60405162461bcd60e51b815260206004820152600e60248201526d50524943455f4f564552464c4f5760901b6044820152606490fd5b90506020813d602011614514575b816144fd60209383612930565b810103126126715761450e90612bda565b5f614449565b3d91506144f0565b6001600160801b03169161456591651cae8c13e00091614553916001600160401b039061454b90821687612ac6565b911690612ac6565b6001600160801b0393919004906133ea565b1690565b9081156145dd575b80156145cb575b602090606460018060a01b035f5160206155dc5f395f51905f525416935f60405195869485936385362ee760e01b8552600485015260248401528160448401525af1908115612666575f91613f18575090565b5060206145d6614f6b565b9050614578565b90506145e7614f6b565b90614571565b908115614661575b801561464f575b602090606460018060a01b035f5160206155dc5f395f51905f525416935f60405195869485936303056db360e31b8552600485015260248401528160448401525af1908115612666575f91613f18575090565b50602061465a614f6b565b90506145fc565b905061466b614f6b565b906145f5565b9081526001600160a01b03909116602082015260400190565b906129bd9180156146a5575b8161536c579050613087614f6b565b506146ae614f6b565b614696565b60405163344ff10160e01b81523060048201526001600160a01b039093169291602083602481875afa928315612666575f936147c2575b5060405163eb3155b560e01b81526001600160a01b03909216600483015230602483015260448201526020816064815f875af1801561266657614791575b5060206024926040519384809263344ff10160e01b82523060048301525afa8015612666575f9061475d576129bd92506145ed565b506020823d602011614789575b8161477760209383612930565b81010312612671576129bd9151613abb565b3d915061476a565b6020813d6020116147ba575b816147aa60209383612930565b8101031261267157506020614728565b3d915061479d565b9092506020813d6020116147ee575b816147de60209383612930565b810103126126715751915f6146ea565b3d91506147d1565b91906001600160a01b038316801591821561488557906148358261481d5f946002546154a8565b91909161482a30826150a7565b600255611165614f6b565b948593614844856002546145ed565b61484e30826150a7565b60025515614875575b5061486230846150a7565b5f5160206155fc5f395f51905f528280a4565b61487f90846150a7565b5f614857565b815f525f60205260405f205480156148cf57816148a75f9493614835936153c8565b9190916148b430826150a7565b6148be89826150a7565b848652856020526040862055613cbd565b826317fe473760e21b5f5260045260245ffd5b9092916001600160a01b0382168015929183156149bf578061481d614909926002546154a8565b9485936001600160a01b0382169384159182156149855761492c876002546145ed565b61493630826150a7565b6002555b15614975575b5015614965575b5061495230846150a7565b5f5160206155fc5f395f51905f525f80a4565b61496f90846150a7565b5f614947565b61497f90866150a7565b5f614940565b855f525f60205261499a8760405f205461468a565b6149a430826150a7565b6149ae85826150a7565b865f525f60205260405f205561493a565b815f525f60205260405f205480156148cf57906149df81614909936153c8565b9190916149ec30826150a7565b6149f686826150a7565b845f525f60205260405f2055613cbd565b939594929390929091803b15614b14576040516346083bfd60e01b81526001600160a01b0393841660048201529383166024850152604484019490945260806064840152608483018190529216939091602091839160a4918391908190838501375f838284010152601f801991011681010301815f875af15f9181614ae0575b50614adc57823d15614ad5573d614a9d81612951565b90614aab6040519283612930565b81523d5f602083013e5b80519081614ad05782638d51880160e01b5f5260045260245ffd5b602001fd5b6060614ab5565b9150565b9091506020813d602011614b0c575b81614afc60209383612930565b810103126126715751905f614a87565b3d9150614aef565b505050505090506129bd6001615059565b5f51602061561c5f395f51905f52546040516382027b6d60e01b81529260209284926001600160a01b03169183918291614b629160048401614671565b03915afa908115612666575f91614b77575090565b6129bd915060203d602011610533576105258183612930565b5f5160206155dc5f395f51905f52546040516307227b9160e21b815260048101929092526001600160a01b0316816044815f602094600660248401525af1908115612666575f91613f18575090565b5f5160206155dc5f395f51905f52546040516307227b9160e21b815260048101929092526001600160a01b0316816044815f602094600560248401525af1908115612666575f91613f18575090565b5f5160206155dc5f395f51905f5254604051630afe14ad60e31b815260048101929092526024820192909252600160f81b604482015290602090829060649082905f906001600160a01b03165af1908115612666575f91613f18575090565b90602080835192838152019201905f5b818110614caa5750505090565b8251845260209384019390920191600101614c9d565b8054821015612a31575f5260205f2001905f90565b5f818152600a60205260409020548015614daa575f198101818111612ad9576009545f19810191908211612ad957818103614d5c575b5050506009548015614d48575f1901614d25816009614cc0565b8154905f199060031b1b191690556009555f52600a6020525f6040812055600190565b634e487b7160e01b5f52603160045260245ffd5b614d94614d6d614d7e936009614cc0565b90549060031b1c9283926009614cc0565b819391549060031b91821b915f19901b19161790565b90555f52600a60205260405f20555f8080614d0b565b50505f90565b805f52600a60205260405f2054155f14614e0057600954600160401b81101561291c57614de9614d7e8260018594016009556009614cc0565b9055600954905f52600a60205260405f2055600190565b505f90565b6001600160a01b0381168015801593909290614e3d90614e2486613b7a565b614e30816002546154a8565b90919061482a30826150a7565b93849315614e9457614e51846002546145ed565b614e5b30826150a7565b6002555b614e84575b50614e6f30836150a7565b5f5f5160206155fc5f395f51905f528180a490565b614e8e90836150a7565b5f614e64565b825f525f602052614ea98460405f205461468a565b614eb330826150a7565b614ebd83826150a7565b835f525f60205260405f2055614e5f565b5f5160206155dc5f395f51905f5254604051639cd07acb60e01b815260048101929092526001600160a01b0316816044815f602094600660248401525af1908115612666575f91613f18575090565b5f5160206155dc5f395f51905f5254604051639cd07acb60e01b81525f6004820152906001600160a01b0316816044815f602094600660248401525af1908115612666575f91613f18575090565b5f5160206155dc5f395f51905f5254604051639cd07acb60e01b81525f6004820152906001600160a01b0316816044815f602094600560248401525af1908115612666575f91613f18575090565b5f5160206155dc5f395f51905f5254604051639cd07acb60e01b81525f6004820152906001600160a01b0316816044815f602094600460248401525af1908115612666575f91613f18575090565b5f5160206155dc5f395f51905f5254604051639cd07acb60e01b8152633b9aca006004820152906001600160a01b0316816044815f602094600560248401525af1908115612666575f91613f18575090565b5f5160206155dc5f395f51905f5254604051639cd07acb60e01b815260048101929092526001600160a01b0316816044815f6020948160248401525af1908115612666575f91613f18575090565b5f51602061561c5f395f51905f52546001600160a01b031691823b15612671576150ea925f9283604051809681958294635ca4b5b160e11b845260048401614671565b03925af18015612666576150fb5750565b5f61510591612930565b565b5f51602061563c5f395f51905f52545f51602061561c5f395f51905f52549092915f916001600160a01b0316803b15612671575f6040518092637d6e912360e11b8252602060048301528183816151616024820189614c8d565b03925af1801561266657615305575b507f9e7b61f58c47dc699ac88507c4f5bb9f121c03808c5676a8078fe583e4649702546001600160a01b0316803b156104f857826040518092633263b83b60e01b8252876004830152606060248301528183816151d06064820189614c8d565b6352b9d4fb60e11b604483015203925af1801561053a579083916152f0575b508490525f5160206155bc5f395f51905f5260205260408220546152e1578382525f5160206155bc5f395f51905f52602052604082208151916001600160401b03831161303057600160401b83116130305781548383558084106152bb575b5060200190835260208320835b8381106152a757505050505f51602061563c5f395f51905f5254905f19821461529357506001015f51602061563c5f395f51905f5255565b634e487b7160e01b81526011600452602490fd5b60019060208451940193818401550161525b565b828552836020862091820191015b8181106152d6575061524e565b8581556001016152c9565b633f06d22b60e01b8252600482fd5b816152fa91612930565b61050757815f6151ef565b6153129192505f90612930565b5f905f615170565b9060646020925f60018060a01b035f5160206155dc5f395f51905f5254166040519687958694637702dcff60e01b86526004860152602485015260448401525af1908115612666575f91613f18575090565b5f5160206155dc5f395f51905f525460405163022f65e760e31b8152600481019290925260248201929092525f604482018190529091602091839160649183916001600160a01b03165af1908115612666575f91613f18575090565b9190918015806153f15750806153eb6153e4856129bd94615537565b94826145ed565b8461531a565b90928015615498578391615484575b602090606460018060a01b035f5160206155dc5f395f51905f525416935f604051958694859363f77f3f1d60e01b8552600485015260248401528160448401525af1908115612666575f9161545457509190565b90506020813d60201161547c575b8161546f60209383612930565b8101031261267157519190565b3d9150615462565b90506020615490614f6b565b919050615400565b50506154a46001615059565b9190565b919082156154cf576154bd6129bd918461468a565b926154c88185615537565b938461531a565b91506154a46001615059565b5f5160206155dc5f395f51905f5254604051631d44e90160e21b8152600481019290925260248201929092525f604482018190529091602091839160649183916001600160a01b03165af1908115612666575f91613f18575090565b9081156155ab575b8015615599575b602090606460018060a01b035f5160206155dc5f395f51905f525416935f6040519586948593631391547f60e01b8552600485015260248401528160448401525af1908115612666575f91613f18575090565b5060206155a4614f6b565b9050615546565b90506155b5614f6b565b9061553f56fe878245876662ba28a480c5ea71726db859fb50222b0a3d7cbbc21cfa336faf019e7b61f58c47dc699ac88507c4f5bb9f121c03808c5676a8078fe583e464970167500e8d0ed826d2194f514dd0d8124f35648ab6e3fb5e6ed867134cffe661e99e7b61f58c47dc699ac88507c4f5bb9f121c03808c5676a8078fe583e4649700878245876662ba28a480c5ea71726db859fb50222b0a3d7cbbc21cfa336faf00a164736f6c634300081b000a",
  "linkReferences": {},
  "deployedLinkReferences": {}
}